:0800000077CC76CCACCC74CCBB
:1018C00017C016C04CC014C00902120001010080EC
:1018D0003209040000000000000012011001FF00A6
:1018E0000008D01653070B0100000001040309048F
:1018F00011241FBECFE5D2E0CDBFDEBF00EB0F93BA
:1019000007E00F9310E0A0E6B0E0E4EDFFE102C0D5
:1019100005900D92A636B107D9F720E0A6E6B0E013
:1019200001C01D92A639B207E1F7E1C1A82FB92F76
:1019300080E090E041E050EA609530E009C02D91F0
:1019400082279795879510F084279527305EC8F3F6
:101950006F5FA8F30895EADF8D939D930895CF9369
:10196000CFB7CF93C0915F02C03B21F4C0915E021C
:10197000C73021F0CF91CFBFCF91A1CFCC27C39556
:10198000B49BE9F7B49B0BC0B49B09C0B49B07C0E0
:10199000B49B05C0B49B03C0B49B01C0D3C00F92DD
:1019A000DF93C0917900DD27C058DF4F012EB49B33
:1019B00003C0DF910F90E6CF2F930F931F934F93A8
:1019C0002FEF4F6F06B304FB20F95F933F9350E076
:1019D0003BE065C016B30126502954FDC89556B3A7
:1019E000012704FB25F92F7306B3B1F05027102708
:1019F00014FB26F906B22230F0F000C016B301271E
:101A000004FB27F90126502906B22430E8F54F7768
:101A1000206816B30000F6CF50274F7D206206B233
:101A2000102F000000C006B300265029102714FB19
:101A300026F906B2E2CF4F7B06B3206400C0DACFAE
:101A400001265029187106B269F14E7F2160012FDD
:101A500016B328C0002650294D7F06B22260102FF1
:101A600029C0012650294B7F06B22460012F2DC0CA
:101A700016B301265029477F2860000006B22EC009
:101A80004F7E06B3206130C0422706B3499300263B
:101A90005029102706B24FEF14FB20F9297F16B307
:101AA00079F2187159F10126502906B2012704FB79
:101AB00021F9237F06B371F2002650293150D0F06E
:101AC00006B2102714FB22F9277E16B351F2012625
:101AD0005029012704FB06B223F92F7C49F20000AC
:101AE00006B3102714FB24F90026502906B22F79DB
:101AF00039F270CF10E21ABF002717C03B50319562
:101B0000C31BD04010E21ABF0881033CF9F00B342C
:101B1000E9F0209177001981110F1213EDCF0936EA
:101B200051F10D3211F0013E39F700937E003F91E3
:101B30005F914F911F910F912F91DF910F90CAB735
:101B4000C5FD1DCFCF91CFBFCF91189520917E00BD
:101B5000222369F310917C00112321F5343022F106
:101B600030937C0020937800109179003BE0311B8A
:101B70003093790019C000917C0001309CF40AE593
:101B80003091650034FD11C000936500CCE6D0E0D3
:101B900010C0052710E000C021C0052710E0C8953F
:101BA00008BB14C03AE501C032ED032EC0E0D0E01E
:101BB00032E017B31861C49A08B317BB58E120E8A4
:101BC0004FEF20FF052708BB279517951C3F28F7E7
:101BD00000004552B0F720FF0527279508BB179551
:101BE0001C3FB8F629913A9561F7077E10917D0068
:101BF000110F08BBC250D04011F01093770010E2D3
:101C00001ABF006117B3177E402F477E54E05A95E4
:101C1000F1F708BB17BB48BB8ACFF8942FEFB0E8A9
:101C2000A0E44AE0B1BF000081EE9CE0B499FECF91
:101C3000B49BFECF0197B499FDCF97FF03C0BA1BA9
:101C4000819501C0BA0FA69529F4281710F031B775
:101C5000282FA1E0415031F731BF0000789408955A
:101C6000F894F201329785E080935700E8957894D4
:101C70000895F201309729F49093680080936700EB
:101C800007C0E430F10539F490936A00809369004D
:101C90008FE59CEC1FC02CEB421628E1520639F46C
:101CA00080916700909168008E559C4F13C02EEB79
:101CB000421628E1520639F48091690090916A0039
:101CC0008D559C4F07C02AEB421628E1520611F4AD
:101CD00081B790E02FB7F89431E00C0130935700B2
:101CE000E8951124CF0102962C012FBF089514BE50
:101CF00088E181BD87E081BDBC9A88E893E1ECE989
:101D0000F1E03197F1F701970097C9F7BC98AB9ACA
:101D10008BB780628BBF7894712C8CE991E001972E
:101D2000F1F7A895312C60917C001DEF160F17FD7F
:101D3000B3C080917900CCE0D0E0C81BD109C05875
:101D4000DF4F6150CE01F2DD8E3F9F4409F0A2C00B
:101D5000809178008D3209F086C0183009F09AC061
:101D600083EC80936C008AE58093650010926B0091
:101D70009881292F207689812223D1F0712C81111D
:101D800008C080E690E090937B0080937A0024E086
:101D900060C0813051F481E180935700E8954C8018
:101DA0005D8097FD51C02FEF50C0382E20E051C00C
:101DB0009A8110927500811106C01092760085E715
:101DC00090E022E03CC0853019F490937D0029C05A
:101DD000863009F58B81813019F48AED98E104C0D1
:101DE000823041F488EC98E190937B0080937A00F4
:101DF00022E10DC0833051F4911108C08CEE98E1BE
:101E000090937B0080937A0024E001C020E080E47E
:101E100080936B001EC0883079F0893031F4909344
:101E20007F0085E790E020E00AC021E08A3009F0D9
:101E300020E085E790E003C08FE790E021E09093F9
:101E40007B0080937A0005C02E8180E880936B0030
:101E500007C08F81811104C08E81821708F4282F5A
:101E60002093640017C080916B0087FF13C080EC43
:101E7000481688E1580640F0842D8F7359F495E098
:101E8000392E1092640006C089919991F2DE1250A9
:101E900071F7F2CF10927C008091650084FF42C000
:101EA000809164008F3F09F43DC0182F893008F0FD
:101EB00018E0811B8093640080916C0098E889276A
:101EC00080936C00112311F1E0917A00F0917B0076
:101ED00080916B0086FF0BC08DE690E0DC012491C1
:101EE0002D933196212F280F2A13F9CF0BC0EF0124
:101EF0008DE690E0DC0129912D93FE01212F280F22
:101F00002A13F9CFF0937B00E0937A00612F8DE6DE
:101F100090E021DD1C5F1C3019F08FEF809364008E
:101F20001093650084E196B3987131F48150D9F72C
:101F300010927D0010927700C1E08111C0E0809185
:101F400066008C1729F0C11101C067DEC0936600DE
:101F5000C30101963C018035934C11F484E0382E86
:101F6000232D3320E9F08AE390E20197F1F7223044
:101F7000A9F4F894E0ECF8E1E054F10983E08093EF
:101F80005700E8953097C1F7412C512CC8E08FEFEE
:101F90009FEF6FDEC150D9F763DE02C02530E1F359
:101FA00084E03812BACEEDEBF8E1E491EF3F09F4AA
:101FB000B4CEF894BC9A1BBE15BA10925F02EAEB3D
:101FC000F8E1E4918FEF8E0F8E3F10F4E1BF000037
:041FD00075CCFFCFFE
:061FD40018BA4008FF5A94
:04000003000018C021
:00000001FF
