:1000000024C097C747C046C0C2C744C043C042C00F
:1000100041C040C03FC03EC03DC03CC03BC02AC5FF
:100020002BC52CC52FC52CC52FC530C531C50037F4
:10003000003800360101010101010102040810200D
:1000400001030000000071016B0111241FBECFE508
:10005000D2E0DEBFCDBF10E0A0E6B0E0E0EBF3E120
:1000600002C005900D92A836B107D9F710E0A8E6B6
:10007000B0E001C01D92A439B107E1F710E0C8E477
:10008000D0E003C02297FE0183D9C634D107D1F74F
:1000900003D982C9B5CFCF93DF93BC0182309105DC
:1000A00010F462E070E0A0919200B0919300ED0135
:1000B000E0E0F0E040E050E021C0888199818617BF
:1000C000970769F48A819B81309719F09383828323
:1000D00004C09093930080939200FE0134C068178F
:1000E000790738F44115510519F08417950708F47C
:1000F000AC01FE018A819B819C01E9012097E9F610
:1001000041155105A9F1CA01861B970B049708F404
:10011000BA01E0E0F0E02AC08D919C91119784171C
:100120009507F9F46417750781F412968D919C91E7
:100130001397309719F09383828304C090939300B0
:1001400080939200FD0132964CC0CA01861B970B2A
:10015000FD01E80FF91F6193719302978D939C93B2
:1001600040C0FD01828193819C01D9011097A1F6C5
:100170008091900090919100892B41F480916200D0
:10018000909163009093910080939000409164005F
:10019000509165004115510541F44DB75EB780910E
:1001A000600090916100481B590B209190003091A4
:1001B0009100CA01821B930B8617970780F0AB0151
:1001C0004E5F5F4F8417950750F0420F531F5093B7
:1001D000910040939000F9016193719302C0E0E0B7
:1001E000F0E0CF01DF91CF910895CF93DF93009797
:1001F00009F450C0EC0122971B821A82A091920050
:10020000B0919300109709F140E050E0AC17BD07A2
:1002100008F1BB83AA83FE0121913191E20FF31F04
:10022000AE17BF0779F48D919C911197280F391F54
:100230002E5F3F4F3983288312968D919C9113979F
:100240009B838A834115510571F4D0939300C09329
:10025000920020C012968D919C911397AD0100974A
:1002600011F0DC01D3CFFA01D383C2832191319104
:10027000E20FF31FCE17DF0769F488819981280FF9
:10028000391F2E5F3F4FFA01318320838A819B8182
:1002900093838283DF91CF910895DC0101C06D9338
:1002A00041505040E0F708958130910559F46F5F57
:1002B0007F4F81F481E790E064E170E040E023E06B
:1002C000DFD50895892B31F46F5F7F4F19F481E7F3
:1002D00090E0C8D5089580E090E06FEF7FEFE4DF15
:1002E000089581E090E06FEF7FEFDEDF0895382F13
:1002F0003095353580F4832F90E06DEF7FEFD0D7C8
:10030000282F2150832F90E063E070E0C9D7482F59
:10031000822F60E013C03A3A98F4232F2555822F9C
:1003200090E063E070E0BCD7382F822F90E06DEF53
:100330007FEFB6D7482F415080E0632FA5D40895B2
:10034000232F2A5A822F90E063E070E0A9D7382F3C
:10035000822F90E06DEF7FEFA3D7682F6150832F3E
:1003600040E092D408950F931F93CF93DF938C01B5
:10037000C0E0D0E00CC080916800882311F081E0DB
:100380000AC061E070E080E090E07CD62196C01762
:10039000D1078CF380E0DF91CF911F910F910895E9
:1003A0004F925F926F927F929F92AF92BF92CF9245
:1003B000DF92EF92FF920F931F93CF93DF933C0155
:1003C00010E009C081E790E0BE0120E030E040E0AD
:1003D00050E0FDD31F5FC12FD0E081E790E074D4DF
:1003E000C817D90778F381E790E0BDD481E790E0A2
:1003F0006BD496958795982EEE24A82EBB242501C4
:10040000089441085108C0E0D0E0CC24CA94DC2C08
:1004100041C080E09C2F692D70E068D7F62EFE0C5D
:100420008F2D65DF9B01AC0181E790E0BE01CFD34A
:1004300081E790E049D48C018F2D59DF9B01AC01FD
:100440000C0D1D1D81E790E0B801C1D381E790E05C
:100450008AD4C30188DF8E010F5F1F4F882309F004
:100460005FC081E790E0BE0120E030E040E050E076
:10047000AED381E790E028D4BC016C0D7D1D81E7EF
:1004800090E020E030E040E050E0A1D30894C108C3
:10049000D108E801C91508F4BCCF00E035C06E01F1
:1004A000CA0CDB1C80E09C2FB50120D7162F1E0D37
:1004B000812F1DDF9B01AC0181E790E0B60187D35E
:1004C000C2018C1B9D0BEC01812F11DF9B01AC0144
:1004D00081E790E0BE017BD381E790E044D4C30183
:1004E00042DF8823E9F481E790E0B60120E030E0C4
:1004F00040E050E06CD381E790E0BE0120E030E0C6
:1005000040E050E064D30F5F81E790E0DDD3C02F7F
:10051000D0E096958795C817D90708F2E39473CF72
:10052000DF91CF911F910F91FF90EF90DF90CF90CF
:10053000BF90AF909F907F906F905F904F90089585
:100540001F93CF93DF9310E00BC080E060E04FEF8C
:100550009BD39B01AC0181E790E0BE0138D31F5FC4
:10056000C12FD0E081E790E0AFD3C817D90768F377
:1005700081E790E0F8D380E590E0F5DE882309F08C
:1005800055C010E00BC080E060E040E07DD39B01EF
:10059000AC0181E790E0BE011AD31F5FC12FD0E00C
:1005A00081E790E091D3C817D90768F381E790E01D
:1005B000DAD388E290E0D7DE8823C1F510E00BC0E3
:1005C00080E060E04FEF60D39B01AC0181E790E0F9
:1005D000BE01FDD21F5FC12FD0E081E790E074D350
:1005E000C817D90768F381E790E0BDD380E590E0B4
:1005F000BADE8823D9F410E00BC080E060E040E070
:1006000043D39B01AC0181E790E0BE01E0D21F5FC4
:10061000C12FD0E081E790E057D3C817D90768F31E
:1006200081E790E0A0D38CE291E09DDEDF91CF9155
:100630001F910895EF92FF920F931F93CF93DF9333
:100640007C0100E010E011C081E790E03DD3BC01E7
:1006500080E0912F37D6802F860F49DE9B01AC01B9
:1006600081E790E0BE01B3D21F5FC12FD0E081E7E8
:1006700090E02AD3C817D90738F381E790E073D305
:10068000C70171DE882311F40F5FDCCFDF91CF91BA
:100690001F910F91FF90EF9008958F929F92AF92CC
:1006A000BF92DF920F93DF93CF9300D000D0CDB7EE
:1006B000DEB75C01DD2400E030C081E790E004D3C8
:1006C000BC0180E0902FFED58D2D860F10DE698352
:1006D0007A838B839C8381E790E0F6D2BC01769588
:1006E00067956819790981E790E029813A814B8102
:1006F0005C816DD281E790E0E7D20894810891088F
:1007000096958795880E991E81E790E0B40129811E
:100710003A814B815C815BD20F5F802E992481E707
:1007200090E0D2D2969587958815990530F681E7A5
:1007300090E019D3C50117DE882311F4D394BBCF01
:100740000F900F900F900F90CF91DF910F91DF904E
:10075000BF90AF909F908F9008958F929F92AF928D
:10076000BF92DF920F93DF93CF9300D000D0CDB72D
:10077000DEB75C01DD2400E026C081E790E0A4D272
:10078000BC0180E0902F9ED58D2D860FB0DD698352
:100790007A838B839C8381E790E0B40129813A813D
:1007A0004B815C8114D281E790E08ED2809490944A
:1007B000880E991E81E790E0B40129813A814B812E
:1007C0005C8105D20F5F802E992481E790E07CD276
:1007D000969587958816990680F281E790E0C3D2B6
:1007E000C501C1DD882311F4D394C5CF0F900F90BC
:1007F0000F900F90CF91DF910F91DF90BF90AF904E
:100800009F908F900895DF92EF92FF920F931F9326
:10081000CF93DF9362E070E069D5D62EE72E00E03B
:1008200010E009C0802F63DD9B01AC0181E790E0FF
:10083000BE01CDD11F5FC12FD0E081E790E044D24F
:10084000C817D90778F381E790E08DD28D2D9E2DC2
:100850008ADD8823F9F410E0F02EF39409C08F2D7F
:1008600046DD9B01AC0181E790E0BE01B0D11E5F87
:10087000C12FD0E081E790E027D2C817D90778F3DD
:1008800081E790E070D28D2D9E2D6DDD882311F4CF
:100890000F5FC6CFDF91CF911F910F91FF90EF9027
:1008A000DF900895CF92DF92EF92FF921F93CF9344
:1008B000DF936B017C0110E007C081E790E0BE018F
:1008C000A701960184D11F5FC12FD0E081E790E09E
:1008D000FBD1C817D90788F381E790E044D288EEAE
:1008E00093E041DDDF91CF911F91FF90EF90DF907A
:1008F000CF9008951F93CF93DF9310E009C081E755
:1009000090E0BE0120E030E040E050E060D11F5FA9
:10091000C12FD0E081E790E0D7D1C817D90778F38D
:1009200081E790E020D284E890E06CE271E04091B1
:10093000670041D1DF91CF911F9108950F931F93CD
:10094000CF93DF9381E790E06FEFC2D100E019C051
:1009500080E060E0402F98D19B01AC0181E790E0FE
:10096000BE0135D11F5FC12FD0E081E790E0ACD14F
:10097000C817D90768F381E790E0F5D10F5F0F3F03
:1009800011F010E0F0CF28E088E190E00FB6F89485
:10099000A89581BD0FBE21BDFFCF8FEF809366006C
:1009A00081E790E06FEF94D184E890E06CE271E031
:1009B000FBD0809367008150883018F081E08093ED
:1009C000670008951F9310E03DC027D32091690070
:1009D00030916A0040916B0050916C00621B730B68
:1009E000840B950B655F71408040904058F1809179
:1009F0006600855080936600882319F47BDF10928F
:100A000067000BD32091690030916A0040916B0020
:100A100050916C00621B730B840B950B69587341EA
:100A20008040904008F08ADF81E790E060916600A6
:100A30004FD181E790E097D162E370E080E090E0F1
:100A400021D311E080916800882309F0BECF1123E3
:100A500049F580916700882321F484E6809367003C
:100A600021C090E0FC013197E830F10598F4E15F96
:100A7000FF4F099482E00FC083E00DC085E00BC0FA
:100A800084E009C086E007C087E005C088E003C0B5
:100A900081E001C084E68093670064E670E080E056
:100AA00090E0F0D21F9108958091680081118ADF53
:100AB00080916700853029F1863060F48230B9F08A
:100AC000833018F4813081F50EC08330B1F084306A
:100AD00059F51BC0873009F18730D8F08830F9F01C
:100AE000843611F520C08FEF6FEF4FEF03C08FEF0B
:100AF0006FEF4CE3C9D0D6DE08958CEB92E083DE35
:100B000008958AE090E029DE089584E690E0C5DD4E
:100B1000089584E190E08EDD089512DD089588E760
:100B200090E03EDC089539DF08951F9311E01093A3
:100B3000680082E081D3892B59F4109368006DD24C
:100B40006093690070936A0080936B0090936C00CF
:100B500082E072D3892B59F0109268005ED26093C4
:100B60006D0070936E0080936F00909370001F91E2
:100B700008950F931F9301E710E0C801E6D0C80164
:100B800060916600A5D0C801EED082E060E0FBD2A3
:100B900082E061E01CD380E065E975E041E050E06F
:100BA000B7D11F910F910895E199FECF7FBB6EBB26
:100BB000E09A8DB30895E199FECF1CBA7FBB6EBB5E
:100BC0004DBB0FB6F894E29AE19A0FBE08959F923A
:100BD000AF92BF92CF92DF92EF92FF920F931F934B
:100BE000CF93DF93EC01FB0189019A018881998100
:100BF00068177907E8F5C901AA27BB27982EC12EE7
:100C0000D22EE32EFF24AC2CB02E4D814423D1F004
:100C100090E0642F70E044D3892F990F990B982EA0
:100C20008C2D90E0642F70E03BD3892F990F990BA6
:100C3000A82E802F90E0642F70E032D3892F990F77
:100C4000990BB82ECF0163E070E02AD3EE81FF81CB
:100C5000E80FF91F8885DF01A80FB11D9C928985D7
:100C6000DF01A80FB11DAC928A85E80FF11DB0829B
:100C7000DF91CF911F910F91FF90EF90DF90CF9078
:100C8000BF90AF909F9008950F931F93062F10E091
:100C900020E030E0322F212F102F002750E060E0BD
:100CA00070E0042B152B262B372B90E0A0E0B0E052
:100CB000DC0199278827082B192B2A2B3B2BB801FD
:100CC000C9011F910F910895FC01808191810895C0
:100CD000FF920F931F93CF93DF93EC01862FF62E95
:100CE000F3942D81F21659F10E811F81622F61500C
:100CF00019F420E030E012C08F3F51F4262F30E08D
:100D000040E050E06FEF7FEF80E090E002D306C05C
:100D10009F2D80E0019770E0D5D29B01E0E0F0E0EC
:100D200008C0D8016C91C90170E0BAD29D938D01C1
:100D300031968A819B81E817F90798F3FD82DF914C
:100D4000CF911F910F91FF9008950F931F938C01E6
:100D5000FC01848161E017D2F801848160E037D220
:100D60001F910F910895EF92FF920F931F93DF93BE
:100D7000CF93CDB7DEB727970FB6F894DEBF0FBE7F
:100D8000CDBF8C01DC0116968D919C911797892B14
:100D900009F45BC050D1F801248535854685578517
:100DA000621B730B840B950B6233710581059105F2
:100DB00088F3F894D80112968D919C9113979F8394
:100DC0008E8316960D90BC91A02D8D918983F8018C
:100DD000E088F188F7018081F8019289892B8A8364
:100DE000F7018081909598239B838B818C8388E089
:100DF0008D836A815B8129813D814C818E819F81B8
:100E0000608327FD462F3A954083452F39F0221FF6
:100E100000C000005083000000C0F2CF38E02D91E8
:100E200050830000019761F7D8015196FC93EE932F
:100E3000509729833D834C839F838E837894FBD086
:100E4000F801648775878687978727960FB6F89489
:100E5000DEBF0FBECDBFCF91DF911F910F91FF90ED
:100E6000EF900895CF93DF93EC018E819F810097DF
:100E700009F0BBD98C8160E086D1DF91CF910895D4
:100E80001F93CF93DF93EC01CB01122F79836883FB
:100E900063E070E005D29B838A834C831D821F82AE
:100EA0001E822B871C861D861E861F86242F30E0FF
:100EB000F901EC5CFF4FE491F0E0E05DFF4FE4915D
:100EC000E88B198A265C3F4FF90144914A8BE3D89D
:100ED0009F838E83009729F04A815B8160E070E0F8
:100EE000DCD910FF04C081E0888719860BC012FF8F
:100EF00006C081E0888782E089871A8605C0188647
:100F000081E0898782E08A87DF91CF911F910895E0
:100F1000882371F48FB7F8947093860060938500EE
:100F20008FBF85B78C7F842B85BF8BB780648BBFC9
:100F3000089578941F920F920FB60F9211242F9359
:100F40003F934F935F936F937F938F939F93AF9351
:100F5000BF93EF93FF938091850090918600892B3A
:100F600029F0E0918500F09186000995FF91EF91BD
:100F7000BF91AF919F918F917F916F915F914F91B1
:100F80003F912F910F900FBE0F901F90189578945E
:100F90001F920F920FB60F9211242F933F938F93AE
:100FA0009F93AF93BF9380918B0090918C00A09101
:100FB0008D00B0918E0030918F00232F24582D3753
:100FC00020F02D570196A11DB11D20938F00809315
:100FD0008B0090938C00A0938D00B0938E00809135
:100FE000870090918800A0918900B0918A000196B5
:100FF000A11DB11D8093870090938800A093890064
:10100000B0938A00BF91AF919F918F913F912F91A3
:101010000F900FBE0F901F9018958FB7F8942091E6
:101020008B0030918C0040918D0050918E008FBFCD
:10103000B901CA0108959FB7F894209187003091B3
:1010400088004091890050918A008FB508B602FE51
:1010500006C08F3F21F02F5F3F4F4F4F5F4F9FBF25
:10106000542F432F322F2227280F311D411D511D90
:1010700082E0220F331F441F551F8A95D1F7B90113
:10108000CA0108959B01AC017FB7F8948091870055
:1010900090918800A0918900B0918A006FB508B640
:1010A00002FE05C06F3F19F00196A11DB11D7FBF63
:1010B000BA2FA92F982F8827860F911DA11DB11D2A
:1010C00062E0880F991FAA1FBB1F6A95D1F7BC0168
:1010D0002EC0FFB7F8948091870090918800A0916E
:1010E0008900B0918A00EFB508B602FE05C0EF3F57
:1010F00019F00196A11DB11DFFBFBA2FA92F982F7E
:1011000088278E0F911DA11DB11DE2E0880F991F48
:10111000AA1FBB1FEA95D1F7861B970B885E9340E9
:10112000C0F2215030404040504068517C4F211562
:1011300031054105510569F60895789480B78068B6
:1011400080BF80B7806480BF8CB580648CBD8FEF1A
:101150008DBD80B7807F876080BF89B7846089BF7D
:1011600083B7887F83BF8AB58C7F81608ABD83B750
:10117000877F83BF83B7887F836083BF86B18760A3
:1011800086B9379A0895482F50E0CA01865C9F4F70
:10119000FC0124914C5C5F4FFA0184918823B1F0EB
:1011A000E82FF0E0E25DFF4FE491F0E0662341F4C8
:1011B0009FB7F89480812095822380839FBF0895F4
:1011C0009FB7F8948081822B80839FBF0895282F3A
:1011D000482F50E0CA01865C9F4FFC0134914C5C63
:1011E0005F4FFA019491992331F1222319F48AB5C2
:1011F0008F7304C0213021F48AB58F7C8ABD05C06D
:10120000243019F48CB58F7C8CBDE92FF0E0E05DC3
:10121000FF4FE491F0E0662341F49FB7F89480819A
:101220003095832380839FBF08959FB7F894808172
:10123000832B80839FBF0895282F482F50E0CA0139
:10124000865C9F4FFC0194914C5C5F4FFA01349196
:10125000332319F420E030E01DC0222319F48AB5AD
:101260008F7304C0213021F48AB58F7C8ABD05C0FC
:10127000243019F48CB58F7C8CBDE32FF0E0EE5C4C
:10128000FF4FE491F0E0808120E030E0892311F00D
:1012900021E030E0C901089550DF6BDC05DCFECFB2
:1012A0005527002480FF02C0060E571F660F771FC8
:1012B0006115710521F096958795009799F7952FFF
:1012C000802D0895AA1BBB1B51E107C0AA1FBB1F9D
:1012D000A617B70710F0A61BB70B881F991F5A95C2
:1012E000A9F780959095BC01CD01089597FB092E33
:1012F00007260AD077FD04D0E5DF06D000201AF4D7
:10130000709561957F4F0895F6F7909581959F4F61
:10131000089597FB092E05260ED057FD04D014D052
:101320000AD0001C38F450954095309521953F4FD8
:101330004F4F5F4F0895F6F79095809570956195A2
:101340007F4F8F4F9F4F0895A1E21A2EAA1BBB1B00
:10135000FD010DC0AA1FBB1FEE1FFF1FA217B30781
:10136000E407F50720F0A21BB30BE40BF50B661F97
:10137000771F881F991F1A9469F76095709580955B
:1013800090959B01AC01BD01CF010895EE0FFF1FA9
:101390000590F491E02D099410E0C8E4D0E003C07A
:1013A000FE01F6DF2296CA34D107D1F7F894FFCFB9
:0813B000200094000000FF641E
:00000001FF
