:1000000043C05DC089C05BC05AC059C058C057C00A
:1000100056C055C054C053C052C051C050C0F3C99F
:100020004CC899C8BBC8E4C810C923C940C980C915
:1000300081C941C89FC9E5C9E4C9E3C9E2C9E1C9A9
:10004000CDC9090219000101008064090400000102
:10005000FF00000007058103080064120110010081
:1000600000000881179F0C040100020301160355CC
:100070000053004200740069006E00790053005084
:10008000004900040309040011241FBECFE5D2E09B
:10009000DEBFCDBF10E0A0E6B0E0E4ECF4E102C0CA
:1000A00005900D92A037B107D9F721E0A0E7B0E0A5
:1000B00001C01D92A839B207E1F772D701CAA0CFDB
:1000C000A82FB92F80E090E041E050EA609530E041
:1000D00009C02D9182279795879510F08427952741
:1000E000305EC8F36F5FA8F30895EADF8D939D93A8
:1000F0000895A6E088279927AA9569F00197E1F36A
:10010000B499FCCFB49BFECF81E09927A6B30196AA
:1001100011F0A871D9F70895CF93CFB7CF93C395B6
:10012000B49BE9F7B49B0BC0B49B09C0B49B07C058
:10013000B49B05C0B49B03C0B49B01C0D5C00F9253
:10014000DF93C0916A01DD27CF58DE4F012EB49BAB
:1001500003C0DF910F90E6CF2F930F931F934F9320
:100160002FEF4F6F06B304FB20F95F933F9350E0EE
:100170003BE065C016B30126502954FDC89556B31F
:10018000012704FB25F92F7306B3B1F05027102780
:1001900014FB26F906B22230F0F000C016B3012796
:1001A00004FB27F90126502906B22430E8F54F77E1
:1001B000206816B30000F6CF50274F7D206206B2AC
:1001C000102F000000C006B300265029102714FB92
:1001D00026F906B2E2CF4F7B06B3206400C0DACF27
:1001E00001265029187106B269F14E7F2160012F56
:1001F00016B328C0002650294D7F06B22260102F6A
:1002000029C0012650294B7F06B22460012F2DC042
:1002100016B301265029477F2860000006B22EC081
:100220004F7E06B3206130C0422706B349930026B3
:100230005029102706B24FEF14FB20F9297F16B37F
:1002400079F2187159F10126502906B2012704FBF1
:1002500021F9237F06B371F2002650293150D0F0E6
:1002600006B2102714FB22F9277E16B351F201269D
:100270005029012704FB06B223F92F7C49F2000024
:1002800006B3102714FB24F90026502906B22F7953
:1002900039F270CF10E21ABF002719C03B503195D8
:1002A000C31BD04010E21ABF0881033C09F10B3494
:1002B000F9F0209168011981110F1213EDCF4A81D5
:1002C000441F093651F10D3211F0013E29F7009318
:1002D0006F013F915F914F911F910F912F91DF918E
:1002E0000F90CAB7C5FD1BCFCF91CFBFCF91189547
:1002F00020916F01222369F310916D01112379F58B
:1003000034307AF130936D012093690110916A01C4
:100310003BE0311B30936A0124C000916D01013034
:10032000F4F40AE54F7049F43091610034FD1AC0CD
:1003300000936100C1E5D1E019C030915C0134FD4A
:1003400011C000935C01CDE5D1E010C0052710E09D
:1003500000C021C0052710E0C89508BB14C03AE5CD
:1003600001C032ED032EC0E0D0E032E017B31861D7
:10037000C49A08B317BB58E120E84FEF20FF0527C8
:1003800008BB279517951C3F28F700004552B0F78A
:1003900020FF0527279508BB17951C3FB8F6299124
:1003A0003A9561F7077E10916E01110F08BBC2509C
:1003B000D04011F01093680110E21ABF006117B32A
:1003C000177E402F477E54E05A95F1F708BB17BBC4
:1003D00048BB7FCFCF93DF9360916D01635067FD82
:1003E000B6C080916A01CCE0D0E0C81BD109CF58DB
:1003F000DE4F809169018D3209F098C0683009F0B4
:10040000A4C083EC809351018AE58093610010922F
:1004100071008881807631F0CE01F7D18F3F09F4E9
:1004200074C07AC09A8110925A018981811106C0E4
:1004300010925B012AE531E082E062C0853019F458
:1004400090936E015AC0863009F041C08B81813093
:1004500049F48BE590E090936C0180936B0190E4FC
:1004600082E132C0823049F482E490E090936C01E2
:1004700080936B0190E489E127C0833019F59111D5
:1004800009C083E890E090936C0180936B0190E445
:1004900084E01AC09130B1F0923049F48DE690E0DA
:1004A00090936C0180936B0190E486E10DC09330D2
:1004B00049F485E690E090936C0180936B0190E0A5
:1004C00088E002C090E480E09093710025C08830FD
:1004D00069F0893019F4909370010FC08A3049F0A7
:1004E0008B3059F48BE480935D0107C020E731E045
:1004F00002C02AE531E081E003C02AE531E080E076
:1005000030936C0120936B0107C0988197FD8E8119
:1005100090E89093710007C09F81911104C09E8163
:10052000981708F4892F809360000FC080917100A4
:1005300087FF0BC0CE0101D18F3F21F48EE1809364
:10054000610003C081111092600010926D018091D2
:10055000610084FF56C0809160008F3F09F451C054
:10056000C82F893008F0C8E08C1B80936000809110
:10057000510198E8892780935101CC2389F180911A
:10058000710087FF08C06C2F82E591E0B7D0C82FBB
:10059000893088F525C040916B0150916C0186FF30
:1005A0000BC0A2E5B1E0FA018C2F8A0F94919D93C4
:1005B00031968A13FBCF09C0DA01E2E5F1E08C2F16
:1005C0008E0F9D9191938E13FCCF2FEF2C0F30E067
:1005D0002F5F3F4F240F351F30936C0120936B0129
:1005E0006C2F82E591E081DDCC5FCC3041F08FEF64
:1005F0008093600004C08FEF80936000CEE1C093D1
:10060000610084E196B3987131F48150D9F710926A
:100610006E0110926801C1E08111C0E0809170000C
:100620008C1729F0C11101C015D3C0937000DF9160
:10063000CF910895AB9A8BB780628BBF8BE4809388
:100640005D018AE580935C010895CF93DF93FB0100
:10065000AC014C5F5F4FEC01A991CE0128E030E086
:1006600070E860E0B72FBA2309F0C09AB091640037
:100670000B2E00C00000000000000A94D1F7C29ABF
:10068000B09164000B2E00C00000000000000A942E
:10069000D1F7660FB1996F5FC098C29876952150D7
:1006A000310921153105F1F661938417950709F099
:1006B000D2CFDF91CF91089580914D0190914E015D
:1006C0009C012F5F3F4F30934E0120934D012091AD
:1006D0004A0127FF02C0880F991F80FD28602093E0
:1006E0004601292F2695209347019695879580935B
:1006F000480162E471E086E491E0A7CFEF92FF92B7
:100700001F93CF93DF931F92CDB7DEB7182F7C01D5
:100710008E2D811B861748F46983CEDF80914501B9
:10072000F70181937F016981F3CF862F0F90DF91CD
:10073000CF911F91FF90EF900895DF92EF92FF927B
:100740000F931F93CF93DF93F62EE82EEC0150E624
:10075000D52E8C2F8E198F1580F5899180934901A4
:10076000ABDF809146018D258093460100E010E0CB
:1007700080914B0190914C010817190750F762E4E2
:1007800071E086E491E061DF80914501909149013B
:10079000891308C090915001891721F090914F0161
:1007A0008913D7CF8091640090E045E0880F991FAE
:1007B0004A95E1F7080F191FDBCF81E0DF91CF9158
:1007C0001F910F91FF90EF90DF90089538B3242F81
:1007D0002095232338B3342B680F791F861797078A
:1007E00099F0FC014191CF0158E038BB440F5A9574
:1007F00000C008F028BB00C0000028BB21F000C0EA
:1008000000C000C0F2CFEACF0895CF93DF93EC0190
:100810009981911108C081E28983D0936C01C093C2
:100820006B0188E014C2913011F486B30CC16A8167
:10083000923011F468BB0AC2862F762F777021E0C0
:1008400030E0072E02C0220F331F0A94E2F79330E4
:1008500009F497C0943009F48FC0953051F4609337
:100860006400B99887B3856287BB88B3887D88BBED
:10087000EDC1963049F4B898C098B998C198BA9823
:10088000C298BD98C598E2C1973051F4BE01CE011F
:100890000296DBDED0936C01C0936B0184E0D7C17C
:1008A000983031F4609350018B8180934F01CEC119
:1008B0004C815D8150934E0140934D01993011F46C
:1008C00080E211C09B3011F480EA0DC04A815B8147
:1008D00050934C0140934B019A3011F480E403C0D3
:1008E0009C3029F480EC80934A018FEFB0C19D3099
:1008F00029F487B32095282327BBA8C19E3021F473
:1009000087B3822B87BBA2C19F3009F5611105C057
:100910008091350187B9A59A0CC0613031F480917E
:100920003501816087B9A29A04C0623011F48FE862
:1009300087B9369A3699FECF84B1888385B1898389
:10094000D0936C01C0936B0114BA82E080C19031E6
:1009500059F4B89AB99A8AB5806A8ABD8AB5836013
:100960008ABD83B7856046C0913121F469BD8C8111
:1009700088BD6CC1923119F488B3822B78CF933142
:1009800029F488B32095282328BB60C1943151F401
:1009900086B390E08223932302C0959587957A953C
:1009A000E2F751C09631A1F561110AC093B79B7F60
:1009B00093BF93B79D7F93BF93B7916093BF47C198
:1009C000613031F483B78B7F83BF83B782600FC000
:1009D000623031F483B78B7F83BF83B7826014C0EA
:1009E000633051F483B7846083BF83B78D7F83BF47
:1009F00083B78E7F83BF2AC1643009F027C183B7D4
:100A0000846083BF83B78D7F83BF83B78160F2CF5C
:100A10009F3159F48B8190E0982F8827860F911D84
:100A2000909363008093620011C1903219F41ABC54
:100A300013BE0CC1913221F46093900181E07FC01C
:100A4000923241F483E18883D0936C01C0936B01AF
:100A500081E0FDC09332C9F4379A86B19A81892B1F
:100A600086B98B81813059F038F0823009F0EEC0C0
:100A700080913501806906C010923501E8C08091EF
:100A80003501806880933501E1C0983249F487E8E8
:100A900091E090936C0180936B0180918F01D7C09E
:100AA000993211F482E04BC09A3211F483E00BC00A
:100AB0009B3211F484E043C09C3211F488E03FC0C3
:100AC0009D3231F489E08093340160939001BEC07F
:100AD0009E3261F48BE080933401609390018B81AE
:100AE000809391018C8180939201B0C09F3259F420
:100AF000613031F4B89AB99ABA9A60933C01A6C0B1
:100B000010923C01A3C0903349F4609338018B816B
:100B1000809337018C818093360198C0913331F4F2
:100B200070E0709341016093400190C0923311F4E2
:100B300085E005C0933331F46093900186E08093A3
:100B4000340184C0963371F565FF1BC0E0917200DB
:100B5000E03CB8F48B81AE2FB0E0AC58BF4F8C9323
:100B60008C81A1E0AE0FB0E0AC58BF4F8C9383E016
:100B70008E0F809372008D81EE5FF0E0EC58FF4F96
:100B800080838A8184FF62C080917200882309F487
:100B90005DC081E18093340187B3822B87BB2093B2
:100BA000730054C09733A1F480916D0090916E0052
:100BB00079D480916D0090916E006B81019672D412
:100BC00080916D0090916E006C8102966BD43EC056
:100BD000892F807F803EE1F48AE080933401892F61
:100BE00087708093900198709093910120E080919C
:100BF0009001281758F5822F90E00296FE01E80F29
:100C0000F91F3081FC01E057FE4F30832F5FEFCF9B
:100C1000803FE1F487E080933401892F88708093CE
:100C2000900197709093910120E080919101281795
:100C300068F4822F90E00296FE01E80FF91F3081E0
:100C4000FC01E057FE4F30832F5FEFCF80E0DF9154
:100C5000CF910895DF92EF92FF920F931F93CF935E
:100C6000DF93C8E0D0E0F12CE0E8EE2EDE2CDF0CC4
:100C7000D1BE3FDA8C01043389E018070CF4FD2C57
:100C8000E6942197209791F78FEF8F0D81BFCF2D9D
:100C9000D0E0219681B790E0C817D9078CF029DA07
:100CA0008453994097FF03C09195819591098017CE
:100CB000910714F4F1B68C0181B78F5F81BFEACF41
:100CC000F1BE61B780E090E0DF91CF911F910F916D
:100CD000FF90EF90DF90E6C3882311F0B89801C031
:100CE000B89A90E0492F50E02091400130914101A5
:100CF0004217530730F425E02A95F1F700C09F5FB3
:100D0000F1CFBA9890E0492F50E020914001309106
:100D100041014217530730F425E02A95F1F700C04E
:100D20009F5FF1CFBA9A90E0492F50E020914001A7
:100D3000309141014217530730F425E02A95F1F72D
:100D400000C09F5FF1CF8111B89A40E0242F30E0BE
:100D500080914001909141012817390730F485E0D6
:100D60008A95F1F700C04F5FF1CF0895B89840E041
:100D7000242F30E0809140019091410128173907DC
:100D800030F425E02A95F1F700C04F5FF1CFBA9813
:100D900040E0242F30E080914001909141012817DC
:100DA000390730F485E08A95F1F700C04F5FF1CF45
:100DB00086B390E0492F50E02091400130914101ED
:100DC0004217530730F425E02A95F1F700C09F5FE2
:100DD000F1CFBA9A90E0492F50E020914001309134
:100DE00041014217530730F425E02A95F1F700C07E
:100DF0009F5FF1CF8170089588B38A7F88BBBA98CE
:100E0000B89840E0242F30E080914001909141015A
:100E10002817390730F485E08A95F1F700C04F5F55
:100E2000F1CF089587B38A7F87BB40E0242F30E05D
:100E300080914001909141012817390730F485E0F5
:100E40008A95F1F700C04F5FF1CFB89A40E0242FA8
:100E500030E080914001909141012817390730F42A
:100E600085E08A95F1F700C04F5FF1CFBA9A40E074
:100E7000242F30E0809140019091410128173907DB
:100E800030F485E08A95F1F700C04F5FF1CF089507
:100E9000B89A40E0242F30E08091400190914101C8
:100EA0002817390730F485E08A95F1F700C04F5FC5
:100EB000F1CFBA9A40E0242F30E080914001909128
:100EC00041012817390730F485E08A95F1F700C011
:100ED0004F5FF1CFBA9840E0242F30E0809140017D
:100EE000909141012817390730F485E08A95F1F790
:100EF00000C04F5FF1CFB89840E0242F30E08091E0
:100F00004001909141012817390730F485E08A9516
:100F1000F1F700C04F5FF1CF0895CF93DF93D82F43
:100F2000C8E08D2F8078D8DEDD0FC150D1F7DF917A
:100F3000CF911CCF1F93CF93DF93182FD8E0C0E041
:100F4000CC0F14DFC82BD150D9F790E0492F50E0D7
:100F500020914001309141014217530730F485E060
:100F60008A95F1F700C09F5FF1CF112311F080E067
:100F700001C081E0B1DE80E0482F50E020914001C7
:100F8000309141014217530730F495E09A95F1F7FB
:100F900000C08F5FF1CF8C2FDF91CF911F9108950B
:100FA00080E287BB88BB80E090E074D28F3F09F07D
:100FB00081BFC0916D00D0916E00CE016BD2E82E42
:100FC000CE01019667D2F82ECE01029663D290ED43
:100FD0009E0D9A3008F04CC290ED9F0D9A3008F0AB
:100FE00047C280538A3008F043C2C0916D00D0914F
:100FF0006E00CE014FD290E090936800809367001E
:10100000CE01019647D290E090936A0080936900E8
:10101000CE0102963FD290E090936C0080936B00DB
:10102000BC9A84E1E2EBF1EF3197F1F700C00000E8
:101030008150C1F7BC9885E090E090934101809386
:10104000400110926300109262002EE088E190E06F
:101050000FB6F894A89581BD0FBE21BD10923B013B
:1010600010923A0110923901109238011092370112
:101070001092360110923D0110923401DBDA78941F
:10108000B898C098B998C198BA98C298BD98C598B0
:10109000CAE1D0E4FBE1FF2EA0E8EA2EA8959AD998
:1010A0008091340190E08231910508F0AAC1FC01E1
:1010B000E15FFF4F0994D12C46C1B89AB998BA9A0A
:1010C000C29A109287018091900180933F01E09233
:1010D0003E0180913E01882309F45EC0C09840E043
:1010E000242F30E080916200909163002817390727
:1010F00030F4F5E0FA95F1F700C04F5FF1CF809141
:101100003E0190913F01892309F0C09AC2988091D5
:101110008701880F809387018091870196B3969508
:101120009170890F8093870140E0242F30E08091F7
:101130006200909163002817390730F425E02A9562
:10114000F1F700C04F5FF1CFC29A80913E018695C2
:1011500080933E01BECFBA9AC2988BEB97E001977D
:10116000F1F700C000008FB7F894C29AE0E2F1E016
:101170003197F1F700C0BA9896B392FB002700F9B7
:1011800010E0F1E00F27009387018FBF8BE996E015
:101190000197F1F7BA9AC29A81E01DC1809190013E
:1011A00080933E01BA9A88E02FB7F894C298909144
:1011B0003E0190FF0BC091E29A95F1F7C29AE7E0E9
:1011C000F1E03197F1F700C0000009C0E7EFF0E06F
:1011D0003197F1F70000C29AF7E3FA95F1F7909191
:1011E0003E01969590933E012FBF8150E9F609C1CB
:1011F0001092870188E090918701969590938701DE
:10120000BA9A9FB7F894C29821E22A95F1F7C29A48
:1012100047E34A95F1F7BA9826B322FB222720F933
:1012200020933E019FBFE2EEF0E03197F1F700C05E
:10123000000090913E01992329F0909187019068D8
:10124000909387018150B9F6A7CFBA9A8FB7F894D7
:10125000C298F1E2FA95F1F7C29A27E32A95F1F7DD
:10126000BA9896B392FB992790F9909387018FBF14
:1012700093CFBA9A8FB7F894C2989091900190FF4B
:101280000BC041E24A95F1F7C29AE7E0F1E03197ED
:10129000F1F700C0000009C0E7EFF0E03197F1F787
:1012A0000000C29AF7E3FA95F1F78FBFAAC0B99A86
:1012B000B898BA9AC298F0923F01CDB98091900146
:1012C0008111C59810923E01E0913E0180919101FB
:1012D000E81738F5F0E0EE56FE4F80818FB9DEB9A1
:1012E00080913F018DB940E0242F30E08091620071
:1012F000909163002817390730F425E02A95F1F71B
:1013000000C04F5FF1CF769BEBCF80913E01E82F7D
:10131000F0E09FB1E957FE4F90838F5F80933E01CD
:10132000D3CF809190018111C59A80913E0153C025
:1013300063DD67C080E090E075DD80919001EDDDB8
:1013400080933E0114C080919001D81650F4ED2D89
:10135000F0E0EE56FE4F8081E0DD80933E01D394B5
:10136000F2CF80919101811193DD80913E018093B4
:10137000870112CF80919001B12C8823C1F02B2DD1
:1013800030E08091910190E00197A90149575E4FAB
:101390006A012817390734F481E0CCDDF601808337
:1013A000B394EDCF80E0C6DDF60180830EC080915E
:1013B0009101B81650F4CB2CD12C81E0BBDDF601A5
:1013C000E957FE4F8083B394F2CF8091920181114F
:1013D0005FDD8091910180938F0113C08CE190E1DA
:1013E0000197F1F700C00000DFB6F8946091720039
:1013F00070E04091730084E790E0E8D910927200A9
:10140000DFBE1092340180913C01882309F446CE5E
:1014100080913D0181110DC08091380180933B0185
:101420008091370180933A01809136018093390190
:1014300019C090913B01981710F4C09801C0C09A50
:1014400090913D0180913A01891710F4C19801C033
:10145000C19A90913D0180913901891710F4C29889
:1014600001C0C29A80913D018F5F80933D0116CEED
:1014700065E3CE0117D080916D0090916E0061E31D
:10148000019610D080916D0090916E0062E30296FB
:1014900009D0ABCDE199FECF9FBB8EBBE09A9927D7
:1014A0008DB30895262FE199FECF1CBA9FBB8EBB4A
:1014B0002DBB0FB6F894E29AE19A0FBE01960895FB
:0414C000F894FFCFCE
:1014C400FF5A0A000A0803350031003200200000E8
:00000001FF
